:020000040800F2
:1000000058910020BD020008FB370008F3370008B4
:10001000F7370008D91C0008653D00080000000003
:10002000000000000000000000000000713800081F
:10003000DD1C00080000000035380008A738000863
:10004000D7020008D7020008D7020008D70200082C
:10005000D7020008D7020008D7020008D70200081C
:10006000D7020008D7020008E11C0008D7020008E8
:10007000D7020008D7020008D7020008D7020008FC
:10008000D7020008D7020008D7020008D7020008EC
:10009000D7020008D7020008D7020008D7020008DC
:1000A000D7020008D7020008D7020008D7020008CC
:1000B000D7020008D7020008D7020008D7020008BC
:1000C000D7020008D7020008D7020008D7020008AC
:1000D000D7020008D70200088D3C0008F93C000850
:1000E000D7020008D7020008D7020008D70200088C
:1000F000D7020008D7020008D7020008D70200087C
:10010000D7020008D7020008D7020008D70200086B
:10011000D7020008D7020008D7020008D70200085B
:10012000D7020008D7020008D7020008D70200084B
:1001300000F002F800F0B2F80AA090E8000C824447
:100140008344AAF10107DA4501D100F0A7F8AFF224
:10015000090EBAE80F0013F0010F18BFFB1A43F0A5
:1001600001031847F8BC000018BD00000A444FF016
:10017000000C10F8013B13F0070408BF10F8014B06
:100180001D1108BF10F8015B641E05D010F8016B4B
:10019000641E01F8016BF9D113F0080F1EBF10F8AF
:1001A000014BAD1C0C1B09D16D1E58BF01F801CBD2
:1001B000FAD505E014F8016B01F8016B6D1EF9D555
:1001C0009142D6D37047000000230024002500266A
:1001D000103A28BF78C1FBD8520728BF30C148BFAA
:1001E0000B6070476E2900F0F981702900F03B83A5
:1001F00066290BF07E8365290BF07B8367290BF062
:10020000788361290BF0778303681B0A28BF41F0CC
:100210008001692900F0A681642900F0A381752975
:1002200000F0A0816F2900F0C982782900F00783CF
:10023000E92900F06382E42900F06082F52900F0EA
:100240005D82EF2900F0C682F82900F0068303687A
:10025000DB0928BF41F08001632901F00B8073297D
:1002600001F01080E32901F01B80F32901F02080C8
:10027000002070471FB501F071F804000020002134
:100280000AF002F9401C6060002000210AF0E6F844
:10029000E06000F0E7F81FBD10B510BD01F030F8C8
:1002A0001146FFF7E7FF09F0ADFA01F009F903B4D1
:1002B000FFF7F2FF03BC01F00DF900000948804789
:1002C00009480047FEE7FEE7FEE7FEE7FEE7FEE738
:1002D000FEE7FEE7FEE7FEE704480549054A064B50
:1002E00070470000B538000831010008588B002025
:1002F00058910020588D0020588D00201CB50C46C8
:10030000064B7B4469460090204600F080F9044685
:100310000020694600F08EF920461CBD2F03000026
:10032000032A40F2308010F0030C00F0158011F821
:10033000013BBCF1020F624498BF11F801CB00F8F9
:10034000013B38BF11F8013BA2F1040298BF00F84D
:1003500001CB38BF00F8013B11F0030300F025800A
:10036000083AC0F0088051F8043B083A51F804CB31
:10037000A0E80810F5E7121D5CBF51F8043B40F8F7
:10038000043BAFF30080D20724BF11F8013B11F802
:1003900001CB48BF11F8012B24BF00F8013B00F846
:1003A00001CB48BF00F8012B704710B5203AC0F0D0
:1003B0000B80B1E81850203AA0E81850B1E8185066
:1003C000A0E81850BFF4F5AF5FEA027C24BFB1E8A3
:1003D0001850A0E8185044BF18C918C0BDE8104014
:1003E0005FEA827C24BF51F8043B40F8043B08BF1D
:1003F0007047D20728BF31F8023B48BF11F8012BE4
:1004000028BF20F8023B48BF00F8012B70474FF08F
:10041000000200B5134694469646203922BFA0E854
:100420000C50A0E80C50B1F12001BFF4F7AF090760
:1004300028BFA0E80C5048BF0CC05DF804EB890051
:1004400028BF40F8042B08BF704748BF20F8022B94
:1004500011F0804F18BF00F8012B704770477047AC
:100460007047000070B5064C7C44064D7D4403E0A7
:10047000206820448047241DAC42F9D170BD0000A3
:100480003CBB000040BB000010B500F0BBFA0068A8
:1004900010BD10B5044600F0B5FA046010BD70B58B
:1004A000044685690068C10601D5302600E0202693
:1004B000C00707D070BDD4E9012130469047206ABB
:1004C000401C20626D1EF6D570BD70B5044685696E
:1004D0000078C00707D170BDD4E9012120209047E2
:1004E000206A401C20626D1EF6D570BD09684A0561
:1004F00001D540B27047C905FCD500B27047096804
:100500004A0501D5C0B27047C905FCD580B2704715
:1005100070B50C460546012A05D02878800600D51E
:10052000EA69002302E0012305E05B1C934202D24A
:10053000E05C0028F9D1A869E618C01AA861286A09
:10054000184428622846FFF7AAFF04E0D5E90121F4
:1005500014F8010B9047B442F8D32846FFF7B5FFD3
:1005600070BD00002DE9F041064600241068752991
:10057000314616A510D0FFF7B9FF002802DA404235
:1005800013A507E031688A0701D512A502E04907E3
:1005900004D511A5012401E0FFF7B1FF00210A22D3
:1005A00006F1240709E0B0FBF2FCB0FBF2F302FB1A
:1005B0001C00303078541846491C0028F3D12346DB
:1005C0002A463046BDE8F04100F065BA0000000060
:1005D0002D0000002B0000002000000011680268C0
:1005E000006A530501D508700AE0D30501D50880DB
:1005F00006E0130603D5C217C1E9000200E0086057
:100600000120704701694A1C02610878704700B5F3
:100610008FB0CDE901310021059105497944CDE93B
:1006200003101146684600F029F90FB000BD000024
:10063000E5FFFFFF0A6802F8010B0A60704700003F
:100640002DE9FF5F15468A460446DFF8AC80F84482
:100650000027D8E900103E46CDE9001010E03AF836
:1006600016106A4602A800F027FE411C07D0217828
:10067000890603D5E269391891420DD80744761CE2
:100680002078800602D5E069B84205DDAE42E6DB9F
:100690003AF816000028E2D1A069C01BA0612046EC
:1006A000FFF7FDFED8E90010CDE90010002017E0AB
:1006B0003AF818106A4602A800F0FEFDB0F1FF3FBC
:1006C00081460BD000250DF1080B05E0D4E901218E
:1006D0001BF8050090476D1C4D45F7D308F101004C
:1006E000B0428046E4DB206A384420622046FFF7AF
:1006F000ECFEBDE8FF9F0000BEB500002DE9F04113
:100700008046D21D22F007020025D2E90002F52919
:1007100015A614D0011E72F1000106DA0023D0EBF9
:10072000030063EB020211A608E0D8F800108B0763
:1007300001D50FA602E0490701D50EA601251146F5
:10074000002408F1240704E000F060F930323A5543
:10075000641C50EA0102F7D12B463246214640463E
:10076000BDE8F04100F097B9000000002D00000046
:100770002B0000002000000030B4002100F1240410
:1007800008E002F00705D208303542EA4372DB0880
:100790006554491C52EA0305F3D10468002310A2F2
:1007A000250708D504F020040C4304D0C4690123B4
:1007B0000CA2641EC46130BC00F06DB910B50446D3
:1007C00021461068FFF79BFE02462046BDE8104018
:1007D0000023D1E7D21D22F00701D1E90023CBE7A6
:1007E0000000000030000000F0B40D46018809054B
:1007F00002D5214C7C4402E01F4C7C440E34002185
:1008000000F1240608E002F00F071209E75D42EA52
:1008100003721B097754491C52EA0307F3D102788B
:100820000023120704D5702D06D009B1022311341C
:100830002246F0BC00F02FB901231034F8E770B560
:1008400004460D4621461068FFF759FE0246294628
:100850002046BDE870400023C6E7D21D22F0070302
:10086000D3E90023C0E70368126843F02003036064
:100870000823C3610023B7E720B400002DE9F05F2F
:10088000894604464FF0000ADFF874B1FB44C0F813
:1008900020A02046E1688847002874D0252806D08B
:1008A000D4E901219047206A401C2062F1E700262C
:1008B0005F462046E16888472028054607DB312D42
:1008C00005D2781910F8200C08B10643F1E7B007FB
:1008D00001D526F00406C4F81CA00027C4F818A00F
:1008E0002A2D09D0284608F09DF938B304EB870873
:1008F000303DC8F8185019E059F8041B204604EBA5
:1009000087029161E1688847012F054618D1E069A7
:10091000002820DA26F020061DE0D8F8180000EBA9
:10092000800005EB40003038C8F818002046E16828
:100930008847054608F076F90028EED1012F0AD045
:100940002E2D08D12046E16888477F1C0546022FDE
:1009500046F02006C4DBA069002803DA404246F0D6
:100960000106A061F00701D026F010066C2D0BD017
:10097000682D09D04C2D39D06A2D35D0742D35D045
:100980007A2D33D016E038E0E1682F4620468847BC
:10099000B842054609D16C2F26D04FF48060E1683B
:1009A000064320468847054604E06C2F1AD04FF4D2
:1009B000807006430DB3A5F14100192802D82035F7
:1009C00046F400664A462946204626604E46FFF712
:1009D00009FC80B101280BD0F61D26F0070000F1BC
:1009E000080956E74020E4E78020D8E70020D6E752
:1009F00006F104094DE7284652E7206ABDE8F09F5A
:100A0000B0B3000000487047F88A002030B5B0F15C
:100A10000A024FEA900E71F100034EEA817EB0EBBC
:100A20000E0061EB91014FEA101E4EEA017E10EBC1
:100A30000E0041EB11114FEA102E4EEA016E10EB41
:100A40000E0041EB11214FEA104E4EEA014E10EB21
:100A50000E0041EB1141401841F100014FEAD00076
:100A600040EA41704FEAD10110EB80054FEA810462
:100A700044EA907444EB01046D1944EB0404521BE6
:100A8000A3414FF0000348BF0A3200D530BD401CDF
:100A900041F1000130BD2DE9F0470D4699469246DF
:100AA000044600F124080168880604D5E06921F0B5
:100AB0001001216000E00120A84201DD471B00E099
:100AC0000027A1697A1902EB0900081AA0612078B1
:100AD000C00602D42046FFF7E2FC002608E0D4E975
:100AE00001211AF806009047206A401C761C2062FB
:100AF0004E45F4DB2078C0060AD52046FFF7CFFC30
:100B000006E0D4E9012130209047206A401C206291
:100B1000381EA7F10107F4DC07E0D4E9012118F839
:100B200005009047206A401C2062281EA5F101059F
:100B3000F3DC2046FFF7C9FC2078000602D502202E
:100B4000BDE8F0870120FBE770472DE9FF4F0C4619
:100B50001E464FF0FF378BB0D2E90001DDF8608010
:100B60000A908A46C1F30A5505B93D460021084658
:100B70004FF00000BAF1000F00F4400005DA00EB7E
:100B800080004FF4400101EA50004FEA9059B9F15A
:100B9000010F00DDB9460A9850EA4A000ED044F62B
:100BA0001050A5F2FF3545432F14B8F1000F1ED0A9
:100BB0007542291E1EDDC9F100021CE0B8F1010FCB
:100BC0004FF0000001D0302103E0F24305E0215452
:100BD000401CB042FBDB30460022002121540B991F
:100BE000C1F80880C1E900200FB0BDE8F08FBD1B3F
:100BF0006D1CDEE74A4600DA694206A800F0F2FB07
:100C000006AB93E8070003AB83E8070050460A9958
:100C100000F0A7FC8DE80700A0F500501F380090F9
:100C20000398002D09DD42F21F014A46084403A93A
:100C30000390684600F006FF08E0A0F500504A4621
:100C40001F3803A90390684600F010FF8DE80700E5
:100C50000004000C03D04FF0FF30410800E01046C4
:100C6000B8F1000F03D00022009215461EE0751E59
:100C700005D4FFF7CBFE303262556D1EF9D5B34671
:100C80000122084302D000227F1C04E02078302893
:100C900001D100227F1E002A099786D01DE0112D68
:100CA00007DAFFF7B3FE303262556D1C50EA0102DD
:100CB000F5D1084302D00098C8B10EE00021681EAB
:100CC00005E0235C625C63542254401E491C81424F
:100CD000F7DBAB46A81B401E0990002004F80B0070
:100CE0000B98099AC0F80880C0E9002B7CE7112610
:100CF0004FF0000859E72DE9F04F88460446D21D11
:100D000022F0070191B0D1E90001CDE90A0107F015
:100D100022FC02460B98C00F01D02D2007E020686E
:100D2000810701D52B2002E0202101EAC000032A1F
:100D3000099001D0072A05DB03464146204600F012
:100D400011FB0BE12078800601D5E06900E0062068
:100D5000B8F1650F814606D0B8F1660F18D0B8F12A
:100D6000670F70D131E00020B9F1110F009001DB65
:100D7000112301E009F101030AAA01A90CA8FFF758
:100D8000E4FEDDE90C70002609F10105834647E029
:100D900001204B4600904FF000470AAA01A90CA879
:100DA000FFF7D3FEDDE90DB00C995D46002610B9C2
:100DB00009F101000D18B9EB050003D4C0F1FF36AD
:100DC00009F10105A5EB09002BE0B9F1010F01DAEA
:100DD0004FF001090020B9F1110F0090484601DDE4
:100DE000112300E003460AAA01A90CA8FFF7ADFEF3
:100DF000DDE90C704D4600268346207800070AD4B2
:100E0000AB4500DA5D4601A8012D04DD411911F85A
:100E1000011C302907D04F4502DA17F1040F04DA1C
:100E2000012082460FE06D1EEEE7002F02DCED1B75
:100E30003E4403E0781CA84200DD7D1CB81B00F195
:100E4000010A4FF000472078000703D4AA4501DBD0
:100E50004FF0FF3A0021B7F1004F0DF143088DF834
:100E6000431024D002202B23002F01DA7F422D23B0
:100E70000A21021EA0F1010000DC5FB197FBF1FC2A
:100E800097FBF1F201FB1C7C17460CF1300C08F8C3
:100E900001CDEEE7A8F1010003702188090501D515
:100EA000452100E06521A0F1010800F8011C099826
:100EB0000FA9A1EB0807FF1D00B10120411901EBAB
:100EC000EA70A1693844081A401EA0612078C00663
:100ED00002D42046FFF7E3FA099828B1D4E90121AA
:100EE0009047206A401C20622078C00622D5204608
:100EF000FFF7D5FA1EE0002E04DBB34502DD01A8A2
:100F0000805D00E03020D4E901219047206A401C38
:100F10002062761CAAF101005FEA000A0AD100F003
:100F20001DFAC0680168405CD4E901219047206A3D
:100F3000401C2062281EA5F10105DCDC07E0D4E995
:100F4000012118F8010B9047206A401C2062381ECE
:100F5000A7F10107F3DC2046FFF7B7FA032011B031
:100F600043E600002DE9F04F04460D46D21D22F065
:100F7000070089B0D0E9009248461746394607F085
:100F8000EAFA0246F80F01D02D2307E02068810716
:100F900001D52B2302E0202101EAC0038DF8203087
:100FA0000BB1012000E00020032A824601D0072A6D
:100FB00004DB2946204600F0D5F93DE12078800683
:100FC00001D40D2500E0E569C7F30A560D2D49DA75
:100FD00000214FEA175B08464FF00000002F00F495
:100FE000400007DA00EB80004FF4400100EBD070C6
:100FF00001EA60008115012901DD4FF0FF31002277
:101000004FEA850CBCF1180F06D31346ACF118005B
:101010004FF08052C24003E04FF4801323FA0CF3E8
:101020000CF10C0CBCF1200F04D3ACF1200C09FA2C
:101030000CF001E007FA0CF000294FF0004801DD48
:1010400018B90FE00ED140450CD319EB02095F41EE
:1010500021B9404502D19F4329EA0209BBEB175F42
:1010600000D0761C2088000502D57B48784402E039
:1010700079487844193808AA302302F80A30037CEA
:101080000AF10101002E0AF1020A53546A4602DCF9
:101090004FF0300101E04FF031014FF001088DF8C1
:1010A000001002D0A6F2FF3603E059EA470100D053
:1010B0006A4E002D02DC2178090704D54FF00208A2
:1010C0002E218DF80110C44600210BE0C7F3034325
:1010D0003F01C35C491C6D1E02F80830052908F168
:1010E000010801DA002DF1DC00210CE000EB19739E
:1010F000491C1B786D1E082902F808304FEA0919AF
:1011000008F1010801DA002DF0DC2178890602D50A
:1011100014E0A8F10108E04505DD02EB080111F833
:10112000011C3029F5D0B8F1000F07DD02EB0801F2
:1011300011F8011C2E2901D1A8F10108002D05DDAF
:101140003E2102F808106D1E08F10108407C002EB7
:1011500002F8080008F1010804DA2D20764202F8AE
:10116000080002E02B2002F808000A214FF47A70F0
:10117000864208F101080BDB96FBF0F3303302F8EE
:10118000083096FBF0F308F1010800FB136601E05C
:10119000642E0CDB642096FBF0F3303302F8083049
:1011A00096FBF0F308F1010800FB136601E00A2E3C
:1011B00006DB96FBF1F0303002F8080008F1010878
:1011C00096FBF1F001FB1060303002F80800A169D5
:1011D00008F1010808EB050202EB0A00081AA061F9
:1011E0002078C00602D42046FFF759F9216A08AEDC
:1011F00001EB0A00206204E0D4E9012116F8010B9A
:101200009047BAF1010AF7D22078C00602D52046ED
:10121000FFF745F96E4609E016F8010B3E280FD09E
:10122000D4E901219047206A401C2062B8F10108EE
:10123000F2D22046FFF749F909B00320BDE8F08F4C
:10124000206A2844206203E0D4E90121302090473D
:101250006D1EEBD3F8E7000023AD000002FCFFFF9A
:1012600010B5436913B1AFF3008001E0FFF750F907
:10127000012010BD127800F124010A7000224A708A
:101280000122EDE711684FF0FF32E9E710B543693D
:1012900013B1AFF3008001E0FFF7D2F9012010BDD8
:1012A000128800F1240182840022C2840122EDE729
:1012B00011684FF0FF32E9E770B516460C46054657
:1012C00000F044F8036893F80101012806D0FF2CD0
:1012D0000FD8185D68B101202C7070BDD3F80701DC
:1012E0003246214603F2071303442846BDE8704006
:1012F00018474FF0FF3070BD00487047F88A002053
:101300007546FFF7F9FFAE4605006946534620F0E3
:101310000700854618B020B5FEF7DEFFBDE8204087
:101320004FF000064FF000074FF000084FF0000BA1
:1013300021F00701AC46ACE8C009ACE8C009ACE854
:10134000C009ACE8C0098D467047000010B500F038
:1013500005F8001D10BD00BF319100000048704726
:10136000188B00202DE9F0411F4604460326016832
:10137000072A01F4006004DB08B116A505E016A5F4
:1013800003E008B115A500E015A521F010002060CC
:10139000A069C01EA0610FB1401EA0612046FFF7EA
:1013A0007EF84FB1D4E9012138469047206A401CAD
:1013B0002062C01C206206E0206AFAE7D4E901211D
:1013C00015F8010B9047761EF8D22046FFF77DF8FE
:1013D000BDE8F0814E414E006E616E00494E460000
:1013E000696E66002DE9F047814616468AB033489B
:1013F00078440DC88DE80D0030487844801C03AC5B
:101400000DC884E80D0041F69B300844372190FB5D
:10141000F1F290FBF1F5A5F1800501FB12041B3CF4
:1014200002D56442012000E00020DFF890A0804651
:101430000027FA44AAF1BE0A0DE0E00709D03246BF
:10144000684607EB47010AEB810100F00FFB8DE8CE
:10145000070064107F1C002CEFD1184F7F44AC3F75
:1014600018E0E80714D007EB04100DF1180A90E813
:101470000E008AE80E00C068F04201D19819089069
:10148000324606A903A800F0F1FA03AB83E807008F
:101490006D10641C002DE4D132466946B8F1000F8E
:1014A00003A802D000F0CEFA01E000F0DFFAC9E9AB
:1014B0000001C9F808200AB0BDE8F08730AA000092
:1014C00010B50446AFF300802046BDE81040FEF79B
:1014D000EEBE000001491820ABBEFEE72600020068
:1014E0004FF0013C50F8042B51F8043B9A4221D1B3
:1014F000A2EB0C03934313EACC1317D150F8042B3F
:1015000051F8043B9A4215D1A2EB0C03934313EA22
:10151000CC130BD150F8042B51F8043B9A4209D15B
:10152000A2EB0C03934313EACC13DBD04FF0000083
:10153000704700BFD01A01BAB1FA81F101F0180169
:1015400022FA01F0CB40C1F12001DBB2C0B2C01AD7
:101550002CFA01F3D11A914311EAC311E6D1704775
:1015600070475FEA400C08BF91F0000F4FEA8C23F0
:101570004FEAC12243EA51514FEA1C5018BF00F50F
:10158000F0404FEA300018BF41F000415FEA6C5C68
:1015900000F02980BCF1FF3F08BF40F08040704759
:1015A000130C06BF12044FF0100C4FF0000C130E7A
:1015B00004BF12020CF1080C130F04BF12010CF14E
:1015C000040C930F04BF92000CF1020CD30F04BF64
:1015D00052000CF1010C11464FF00002A0F11F0067
:1015E000A0EB0C00704711F0004F08BF704731F0BE
:1015F00000413FF4D5AF0B0C06BF09044FF0100CAF
:101600004FF0000C0B0E04BF09020CF1080C0B0F7D
:1016100004BF09010CF1040C8B0F04BF89000CF10D
:10162000020CCB0F04BF49000CF1010CCCF12003DC
:10163000A0EB0C0022FA03F302FA0CF241EA0301D8
:1016400000F10100704720F07F4C80EA030023F096
:101650007F47ACEB070303F57C5300F0004003F138
:10166000FF032DE980494FEA154B09B44FEA1443B3
:1016700025EA0B4E24EA03480FF2042606EB132753
:1016800049083E785FEA320203FB0667C7F50007A8
:1016900007FB06F64FEA54374FEAD64606F1020634
:1016A00007FB066CCCF1005C4FEA1C472CEA074CA8
:1016B00007FB06F40CFB06F504EB15464FEA9616FD
:1016C00034BF00204FF000404FEAD13706FB07FC43
:1016D0004FEA1C4C0CFB0BF7D21B03FB0CF761EB26
:1016E00007010CFB0EF7B0EB074072EB17420CFB47
:1016F00008F734BFA2EB0742B2EB074261EB174198
:101700004FEA0C444FEA910706FB07FC4FEA1C4CDA
:101710000CFB0BF7B0EBC74072EB573203FB0CF737
:1017200034BFA2EBC742B2EBC74261EB57310CFBAF
:101730000EF7B0EBC70072EB57720CFB08F734BF23
:10174000A2EBC702B2EBC70261EB5771039F4FEAEE
:10175000816141EA921104EBCC044FEAD1374FEAA0
:10176000826206FB07FC42EA90124FEA80604FEA71
:101770001C4C0CFB0BF7D21B03FB0CF761EB0701B6
:101780000CFB0EF7B0EB074072EB17420CFB08F7AF
:1017900034BFA2EB0742B2EB074261EB17414FEABD
:1017A0008C554FEA910704EB9C2406FB07FC4FEA9B
:1017B0001C4C0CFB0BF7B0EBC74072EB573203FB32
:1017C0000CF734BFA2EBC742B2EBC74261EB573113
:1017D0000CFB0EF7B0EBC70072EB57720CFB08F76F
:1017E00034BFA2EBC702B2EBC70261EB577115EB36
:1017F0004C254FEA816141EA92114FEA82624FEA39
:10180000D13742EA901206FB07FC44F100044FEA8C
:1018100080604FEA1C4C0CFB0BF7D21B03FB0CF750
:1018200061EB07010CFB0EF7B0EB074072EB1742C0
:101830000CFB08F734BFA2EB0742B2EB074261EBA7
:10184000174115EB1C154FEA813141EA92414FEAED
:10185000823242EA90424FEA80304FEA0C7644F1FD
:10186000000448EA03434EEA0B484FF0000EB2EB87
:10187000080C71EB030724BF624639464EEB0E0E8F
:101880004FF0000B0018524149414BEB0B0BB2EBF0
:10189000080C71EB03077BF1000B24BF624639464D
:1018A0004EEB0E0E4FF0000B0018524149414BEB2E
:1018B0000B0BB2EB080C71EB03077BF1000B24BFA1
:1018C000624639464EEB0E0E51EA020718BF46F04B
:1018D000010616EB0E7655F1000254F1000103D516
:1018E000BDE88901BDE80088BDE88901BDE8004880
:1018F000B619524141EB0101A3F101037047808009
:101900007F7E7D7C7B7A7978777676757473727159
:1019100071706F6E6E6D6C6C6B6A6A696868676611
:1019200066656464636362616160605F5F5E5E5DA3
:101930005D5C5C5B5B5A5A59595858575756565517
:1019400055555454535352525251515050504F4F79
:101950004F4E4E4D4D4D4C4C4C4B4B4B4A4A4A49C9
:10196000494948484847474747464646454545440C
:101970004444444343434342424242414141002B99
:1019800026D4770021D01CB54FEA370703B44FF0B7
:1019900010004FF010014FF000000FBCBDE81040E8
:1019A0000BF1010BBBF1010F08BF5FEA170722BF64
:1019B00012F1010211F101014FF0004143F1000366
:1019C00000F0004043EA00007047F9D35708DAE717
:1019D00046EA064613F1400F4FEA16461FDD13F1A3
:1019E000200FDFBF16430A46002120335B42C8D0D8
:1019F000C3F1200746EA064602FA07F74FEA164601
:101A000046EA0706C3F1200722FA03F201FA07F7B4
:101A100021FA03F14FF0000342EA0702B1E746EA78
:101A2000020646EA06464FEA164646EA0106BCBFEB
:101A300046EA0646360C4FF000034FF000024FF026
:101A400000019EE72DE9C048934630B491E8380084
:101A500007C831EA400C48BF34EA430C03D5FFF70E
:101A6000F2FDFFF78CFFF0BCBDE800882DE9C0480F
:101A7000934630B491E8380007C810F0804F08BF93
:101A800013F0804F03D100F005F8FFF778FFF0BCAA
:101A9000BDE8008820F07F4780EA030023F07F4CF8
:101AA00007EB0C03A3F57C5300F00040A3F1FE0309
:101AB00092F0000F00F0B38095F0000F00F07780F7
:101AC0002DE901494FEA11404FEA144621EA004846
:101AD00000FB06FC24EA064708FB06F607FB08F8AD
:101AE00000FB07F718EB06484CEB164C4FEA124B7D
:101AF00018EB07484FEA15464CEB174022EA0B4E0D
:101B00000BFB06FC25EA06470EFB06F607FB0EFE5E
:101B10000BFB07F71EEB064E4CEB164C4FF0000686
:101B20001EEB074E4CEB174B18EB0B0840F1000077
:101B300018EB0E0B58EB000840F100008F1A4FF025
:101B400000013CBFC943661B14BFB5EB040C002168
:101B50003CBFC943F61B4FEA17444EEA8E0E27EAF4
:101B600004454FEA1C4704FB07622CEA074C05FBBF
:101B700007F70CFB05F604FB0CFC16EB074642EBE3
:101B8000174216EB0C4642EB1C421BEB060658EBC9
:101B90000202414146EA9E0601D5BDE80189B61917
:101BA000524141EB0101A3F10103BDE801894FEA74
:101BB00014454FEA114724EA054621EA074C05FB84
:101BC00007F406FB07F70CFB06F105FB0CFC11EB19
:101BD000074144EB17444FEA124711EB0C4144EB29
:101BE0001C4422EA074C05FB07F206FB07F70CFB37
:101BF00006F605FB0CFC16EB074642EB174216EB0C
:101C00000C4642EB1C456A1854F1000148BF70476E
:101C1000B619524141EB0101A3F10103704795F060
:101C2000000F37D04FEA11424FEA144721EA02462B
:101C300024EA074C02FB07F106FB07F70CFB06F44E
:101C400002FB0CFC14EB074441EB17414FEA15472C
:101C500014EB0C4441EB1C4125EA074C02FB07F551
:101C600006FB07F70CFB06F602FB0CFC16EB07461F
:101C700045EB174516EB0C4645EB1C42121951F18A
:101C8000000148BF7047B619524141EB0101A3F171
:101C9000010370474FEA14454FEA114724EA05460D
:101CA00021EA074C05FB07F106FB07F70CFB06F2E0
:101CB0004FF0000605FB0CFC12EB074241EB17410D
:101CC00012EB0C4251EB1C4148BF7047921841EB9C
:101CD0000101A3F10103704700BFFEE77047000058
:101CE00010B501229103154800F0BAFA01F0B8FDD1
:101CF00000224FF48041114800F0B2FA1020104940
:101D0000086010480068401C0E49086008460068DA
:101D1000322805DA002220210B4800F0A1FA0CE05D
:101D200008480068642805DA01222021064800F0EE
:101D300097FA02E000200349086010BD000C014042
:101D40001404014024010020001C014070B5044629
:101D5000B3F5804F24D1F02696FAA6F6B6FA86F6A9
:101D6000D1E90005B54028434FF47F4696FAA6F620
:101D7000B6FA86F68D68B54028438D6928434FF43E
:101D8000702696FAA6F6B6FA86F6CD68B5402843D0
:101D900054F82250054E3540284344F8220003E011
:101DA0006FF0704044F82200002070BD0000F0CFBA
:101DB00010B50246086852F8200020F001000B68B8
:101DC00042F823008868082822D1486840F0400083
:101DD0008B681843CB6818430B6918434B69184349
:101DE0008B691843CB6918430B6A18434B6A184335
:101DF0008B6A1843CB6A18430B6B18430B6852F875
:101E00002330144C234018430B6842F823001FE092
:101E1000D1E901031843CB6818430B6918434B6998
:101E200018438B691843CB6918430B6A18434B6AF4
:101E300018438B6A1843CB6A18430B6B18430B6823
:101E400052F82330034C234018430B6842F8230018
:101E5000002010BD8100F7FF30B50346F02595FA4C
:101E6000A5F5B5FA85F5D1E90004AC4020434FF45F
:101E70007F4595FAA5F5B5FA85F58C68AC40204309
:101E80004FF4702595FAA5F5B5FA85F5CC68AC4008
:101E900020430C69641E4FF4700595FAA5F5B5FA58
:101EA00085F5AC4020434C69A41E4FF0706595FA4F
:101EB000A5F5B5FA85F5AC4020438C692043541C48
:101EC00053F8244004F040442043541C43F82400B9
:101ED000002030BD70B504460D462A462146024812
:101EE00002F08EF970BD00000C02002070B50446AF
:101EF0000D462A462146024802F086F970BD0000D0
:101F00000C02002031B5002400F0B0F9044600BFF7
:101F100000F0ACF9001B00998842F9D338BD0000ED
:101F20002DE9F847024600240020002584460027BA
:101F300000237BE14FF0010808FA03F4D1F8008098
:101F400008EA0400A0427DD1DFF8ECA2D1F80480B9
:101F5000A8EB0A09D0453AD014DCB8F1030F50D0F1
:101F600009DCB8F1000F31D0B8F1010F1CD0B8F185
:101F7000020F49D120E0B8F1110F18D0B8F1120FBB
:101F800042D11EE0B9F5881F25D006DCB9F5803FA7
:101F900020D0B9F5801F37D11AE0B9F5001F18D04D
:101FA000B9F5041F30D117E0D1F80CC02DE0D1F8FD
:101FB0000C8008F1040C28E0D1F80C8008F1080C22
:101FC00023E0D1F80C8008F10C0C1EE000BF00BF2C
:101FD00000BF00BF00BF00BFD1F80880B8F1000FFC
:101FE00002D14FF0040C0BE0D1F80880B8F1010FDA
:101FF00003D14FF0080C146102E04FF0080C54615B
:1020000003E04FF0000C00E000BF00BFFF2801D844
:10201000904601E002F104084646FF2802D84FEA44
:10202000830803E0A3F108084FEA88084746D6F87A
:1020300000804FF00F0909FA07F928EA09080CFA9D
:1020400007F900E07AE048EA0908C6F80080D1F80C
:10205000048008F08058B8F1805F6FD100BFDFF8CE
:10206000DC81D8F8188048F00108DFF8D091C9F871
:102070001880C846D8F8188008F00108CDF800800C
:1020800000BF00BF4FEAB9384FEA930958F829500A
:102090004FEA83784FEA18794FF00F0808FA09F8E9
:1020A00025EA0805DFF89881424502D14FF0000883
:1020B00024E0DFF89081424502D14FF001081DE095
:1020C000DFF88481424502D14FF0020816E0DFF8C4
:1020D0007C81424502D14FF003080FE0DFF87081A8
:1020E000424502D14FF0040808E0DFF8688142451C
:1020F00002D14FF0050801E04FF006084FEA83795E
:102100004FEA197908FA09F848EA0505DFF8488125
:102110004FEA930948F82950D1F8048008F4803830
:10212000B8F5803F0BD1DFF83481D8F8008048EA59
:102130000008DFF82891C9F800800AE075E0DFF8B0
:102140001C81D8F8008028EA0008DFF81091C9F84F
:102150000080D1F8048008F40038B8F5003F0ED1B3
:10216000DFF8F88008F10408D8F8008048EA000891
:10217000DFF8E89009F10409C9F800800DE0DFF804
:10218000DC8008F10408D8F8008028EA0008DFF8AD
:10219000CC9009F10409C9F80080D1F8048008F452
:1021A0008018B8F5801F0ED1DFF8B08008F108085C
:1021B000D8F8008048EA0008DFF8A09009F1080983
:1021C000C9F800800DE0DFF8948008F10808D8F81D
:1021D000008028EA0008DFF8849009F10809C9F8AE
:1021E0000080D1F8048008F40018B8F5001F0ED163
:1021F000DFF8688008F10C08D8F8008048EA000889
:10220000DFF8589009F10C09C9F800800DE0DFF8FB
:102210004C8008F10C08D8F8008028EA0008DFF8A4
:102220003C9009F10C09C9F800805B1C102BFFF4ED
:1022300081AEBDE8F88700000000111000100240D8
:1022400000080140000C0140001001400014014052
:1022500000180140001C014008000140000401403A
:102260000AB1016101E00B04036170470148006895
:10227000704700002C01002002480068401C014902
:10228000086070472C01002010B50848006840F035
:10229000100006490860032000F068F8002000F0F4
:1022A00007F800F017F8002010BD000000200240E1
:1022B00070B5044600F088FA4FF47A71B0FBF1F57E
:1022C000284601F029F800222146501E00F010F89F
:1022D000002070BD704700BF00F01F020121914037
:1022E0004209920002F1E022C2F8001100BF7047DB
:1022F0002DE9F05F80460D461646002701F07EFA74
:10230000074639462A46334601F00700C0F1070A5E
:10231000BAF1040F02D94FF0040A01E0C0F1070A34
:10232000D14600F1040ABAF1070F02D24FF0000AB9
:1023300001E0A0F1030AD4464FF0010A0AFA09FAB3
:10234000AAF1010A0AEA020A0AFA0CFA4FF0010B92
:102350000BFA0CFBABF1010B0BEA030B4AEA0B0483
:102360002146404601F052FABDE8F09F00BF00F060
:102370000702064B19684FF6FF031940044B0B4345
:1023800043EA0221014B196000BF70470CED00E0E9
:102390000000FA0570B504460D460026F7480068AF
:1023A00000F00700A84270D2F448006820F007004F
:1023B0002843F24908600846006800F00700A84278
:1023C00001D0012070BD207800F00200022807D162
:1023D000EB48406820F0F000A1680843E8494860F5
:1023E000207800F0010000286FD0606801282DD10E
:1023F0002020010391FAA1F1B1FA81F108430121F2
:10240000B1EB601F02D1DE4800680FE0202001031D
:1024100091FAA1F1B1FA81F108430221B1EB601FF9
:1024200002D1D748006A01E0D548406A20210A035A
:1024300092FAA2F2B2FA82F2114301F01F020121D4
:1024400091400840002861D10120BBE76068022864
:102450002DD12020010591FAA1F1B1FA81F10843B3
:102460000121B1EB601F02D1C548006810E02020B7
:10247000010591FAA1F1B1FA81F108430221B1EB12
:10248000601F03D1BE48006A02E083E0BC48406A96
:1024900020210A0592FAA2F2B2FA82F2114301F067
:1024A0001F0201219140084078BB01208AE72020CB
:1024B000022191FAA1F1B1FA81F108430121B1EBB6
:1024C000601F03D1AE48006810E05BE120200221CC
:1024D00091FAA1F1B1FA81F108430221B1EB601F39
:1024E00002D1A748006A01E0A548406A20210222E3
:1024F00092FAA2F2B2FA82F2114301F01F02012114
:102500009140084008B901205CE7FFE79C4840681B
:1025100020F003006168084399494860FFF7A6FE70
:1025200006466068012810D108E0FFF79FFE801B77
:1025300041F28831884201D9032043E7904840683E
:1025400000F00C000428F0D11CE16068022810D1D2
:1025500008E0FFF78BFE801B41F28831884201D9E9
:1025600003202FE78648406800F00C000828F0D1CF
:1025700008E108E0FFF77AFE801B41F288318842CB
:1025800001D903201EE77E48406800F00C000028B7
:10259000F0D1F7E0207800F00200022807D1784857
:1025A000406820F0F000A168084375494860207831
:1025B00000F0010000286ED0606801282CD1202096
:1025C000010391FAA1F1B1FA81F108430121B1EBC4
:1025D000601F02D16A4800680FE02020010391FAD1
:1025E000A1F1B1FA81F108430221B1EB601F02D1E0
:1025F0006348006A01E06248406A20210A0392FAB7
:10260000A2F2B2FA82F2114301F01F0201219140BD
:10261000084088BB0120D5E6606802282DD1202023
:10262000010591FAA1F1B1FA81F108430121B1EB61
:10263000601F02D1524800680FE02020010591FA86
:10264000A1F1B1FA81F108430221B1EB601F02D17F
:102650004B48006A01E04A48406A20210A0592FA84
:10266000A2F2B2FA82F2114301F01F02012191405D
:10267000084008B90120A5E62DE02020022191FAAA
:10268000A1F1B1FA81F108430121B1EB601F03D13F
:102690003B48006810E061E02020022191FAA1F19E
:1026A000B1FA81F108430221B1EB601F02D1344835
:1026B000006A01E03248406A2021022292FAA2F226
:1026C000B2FA82F2114301F01F0201219140084049
:1026D00008B9012076E62A48406820F003006168C6
:1026E000084327494860FFF7C1FD06466068012896
:1026F00010D108E0FFF7BAFD801B41F28831884213
:1027000001D903205EE61E48406800F00C00042852
:10271000F0D123E06068022810D108E0FFF7A6FDA1
:10272000801B41F28831884201D903204AE61448CF
:10273000406800F00C000828F0D10FE008E0FFF737
:1027400095FD801B41F28831884201D9032039E68A
:102750000B48406800F00C000028F0D107480068E2
:1027600020F007002843054908600846006800F08B
:102770000700A84206D0012024E600000020024005
:1027800000100240207800F00400042807D10D4812
:10279000406820F4E060E16808430A494860207816
:1027A00000F00800082808D10648406820F460506E
:1027B000216940EAC100034948600020FFF778FD25
:1027C0000020FFE50010024000B500F045F809497F
:1027D000496801F0F001F02292FAA2F2B2FA82F214
:1027E000D140054A515CC840044908600846006869
:1027F00000BD000000100240EAB900080C000020F3
:1028000000B5FFF7E1FF0749496801F4E0614FF4C3
:10281000E06292FAA2F2B2FA82F2D140024A515C2C
:10282000C84000BD00100240EAB9000800B5FFF73B
:10283000CBFF0749496801F460514FF4605292FAA6
:10284000A2F2B2FA82F2D140024A515CC84000BD05
:1028500000100240EAB90008F0B585B00FF28C0C08
:102860009CE8E01001A8A0E8E01024A52D680095E0
:1028700000210024002200230020214D696801F07E
:102880000C056DB3042D02D0082D28D101E01D48A0
:1028900028E001F470154FF4701696FAA6F6B6FA11
:1028A00086F6F54001AE735D01F4803595B1144DA7
:1028B0006D6805F400354FF4003696FAA6F6B6FAC0
:1028C00086F6F5401DF805400E4DB5FBF4F505FB09
:1028D00003F202E00C4D03FB05F2104602E000BFDC
:1028E000084800BF00BF05B0F0BD000002030405AA
:1028F000060708090A0B0C0D0E0F1010010200004C
:102900000010024000127A0000093D0038B504466C
:102910000025207800F00100002877D0FC484068AE
:1029200000F00C0004280CD0F948406800F00C00BE
:10293000082837D1F648406800F48030B0F5803F71
:1029400030D12020010391FAA1F1B1FA81F10843BD
:102950000121B1EB601F02D1ED4800680FE020209B
:10296000010391FAA1F1B1FA81F108430221B1EB1F
:10297000601F02D1E648006A01E0E548406A202174
:102980000A0392FAA2F2B2FA82F2114301F01F0294
:102990000121914008400028BFD06068002835D14F
:1029A000012038BD00BFDA48006820F48030D849E3
:1029B00008600846006820F48020086000BFFFF728
:1029C00055FC054606E0FFF751FC401B642801D981
:1029D0000320E6E72020010391FAA1F1B1FA81F189
:1029E00008430121B1EB601F02D1C948006810E023
:1029F0002020010391FAA1F1B1FA81F108430221EB
:102A0000B1EB601F03D1C248006A02E0B7E0C048E2
:102A1000406A20210A0392FAA2F2B2FA82F211432A
:102A200001F01F020121914008400028CBD100BFD6
:102A30006068B0F5803F06D1B548006840F480304A
:102A4000B349086028E0606858B9B148006820F4CC
:102A50008030AF4908600846006820F48020086094
:102A60001AE06068B0F5A02F0BD1A948006840F4C7
:102A70008020A74908600846006840F4803008605C
:102A80000AE0A348006820F48030A14908600846A5
:102A9000006820F48020086000BF6068B8B3FFF7CA
:102AA000E5FB054606E0FFF7E1FB401B642801D982
:102AB000032076E72020010391FAA1F1B1FA81F118
:102AC00008430121B1EB601F02D1914800680FE07B
:102AD0002020010391FAA1F1B1FA81F1084302210A
:102AE000B1EB601F02D18A48006A01E08848406A61
:102AF00020210A0392FAA2F2B2FA82F2114301F003
:102B00001F020121914008400028CCD037E0FFE7A8
:102B1000FFF7ACFB054606E0FFF7A8FB401B642867
:102B200001D903203DE72020010391FAA1F1B1FA78
:102B300081F108430121B1EB601F02D174480068A4
:102B40000FE02020010391FAA1F1B1FA81F10843CD
:102B50000221B1EB601F02D16D48006A01E06C48B0
:102B6000406A20210A0392FAA2F2B2FA82F21143D9
:102B700001F01F020121914008400028CCD12078AB
:102B800000F0020002284ED16148406800F00C00BD
:102B900050B15F48406800F00C00082844D15C4800
:102BA000406800F4803078BB2020022191FAA1F126
:102BB000B1FA81F108430121B1EB601F02D1544801
:102BC00000680FE02020022191FAA1F1B1FA81F111
:102BD00008430221B1EB601F02D14D48006A01E0B9
:102BE0004B48406A2021022292FAA2F2B2FA82F203
:102BF000114301F01F0201219140084028B12069D2
:102C0000012802D00120CCE60EE04148006820F007
:102C1000F800F82292FAA2F2B2FA82F261699140C7
:102C200008433B49086095E0206970B3012090FAA1
:102C3000A0F1B1FA81F1374A42F82100FFF716FB03
:102C4000054606E0FFF712FB401B022801D90320CE
:102C5000A7E62020022191FAA1F1B1FA81F10843FF
:102C60000121B1EB601F02D12948006810E020204B
:102C7000022191FAA1F1B1FA81F108430221B1EBED
:102C8000601F03D12248006A02E01EE02048406A2B
:102C90002021022292FAA2F2B2FA82F2114301F04A
:102CA0001F020121914008400028CBD0184800683D
:102CB00020F0F800F82292FAA2F2B2FA82F26169E8
:102CC000914008431249086044E00020012191FA34
:102CD000A1F1B1FA81F10F4A42F82100FFF7C6FADB
:102CE000054606E0FFF7C2FA401B022801D903207F
:102CF00057E62020022191FAA1F1B1FA81F10843AF
:102D00000121B1EB601F07D10148006814E0000009
:102D100000100240000042422020022191FAA1F15D
:102D2000B1FA81F108430221B1EB601F02D1FC48E6
:102D3000006A01E0FA48406A2021022292FAA2F2D7
:102D4000B2FA82F2114301F01F02012191400840C2
:102D50000028C7D1207800F00800082846D1A069D3
:102D600080B3012090FAA0F1B1FA81F1ED4A02EBB3
:102D70008101C1F88004FFF779FA054606E0FFF704
:102D800075FA401B022801D903200AE660200221BF
:102D900091FAA1F1B1FA81F108430121B1EB601F71
:102DA00002D1DF48006810E06020022191FAA1F111
:102DB000B1FA81F108430221B1EB601F03D1D84879
:102DC000006A02E013E0D648406A6021022292FACB
:102DD000A2F2B2FA82F2114301F01F0201219140E6
:102DE00008400028CBD00120FFF78CF841E00020FC
:102DF000012191FAA1F1B1FA81F1CA4A02EB8101F4
:102E0000C1F88004FFF732FA054606E0FFF72EFA14
:102E1000401B022801D90320C3E56020022191FA5A
:102E2000A1F1B1FA81F108430121B1EB601F02D198
:102E3000BB4800680FE06020022191FAA1F1B1FACD
:102E400081F108430221B1EB601F02D1B448006A4E
:102E500001E0B348406A6021022292FAA2F2B2FA7B
:102E600082F2114301F01F02012191400840002825
:102E7000CCD1207800F00400042875D100BFA84808
:102E8000C06940F08050A649C8610846C06900F09A
:102E90008050009000BF00BFA348006840F48070DD
:102EA000A1490860FFF7E2F9054606E0FFF7DEF901
:102EB000401B642801D9032073E59B48006800F497
:102EC00080700028F2D000BF9548006A20F0010011
:102ED000934908620846006A20F00400086200BFB7
:102EE000FFF7C4F9054608E0FFF7C0F9401B41F2BF
:102EF0008831884201D9032053E54020022191FA0C
:102F0000A1F1B1FA81F108430121B1EB601F02D1B7
:102F1000834800680FE04020022191FAA1F1B1FA44
:102F200081F108430221B1EB601F02D17C48006AA5
:102F300001E07B48406A4021022292FAA2F2B2FAF2
:102F400082F2114301F01F02012191400840002844
:102F5000CAD100BFE068012807D17148006A40F07B
:102F600001006F49086228E09EE0E06858B96C48AB
:102F7000006A20F001006A4908620846006A20F0F1
:102F80000400086219E0E06805280BD16448006A73
:102F900040F00400624908620846006A40F00100FF
:102FA00008620AE05E48006A20F001005C4908629D
:102FB0000846006A20F00400086200BFE068C8B359
:102FC000FFF754F9054608E0FFF750F9401B41F2BE
:102FD0008831884201D90320E3E44020022191FA9C
:102FE000A1F1B1FA81F108430121B1EB601F02D1D7
:102FF0004B4800680FE04020022191FAA1F1B1FA9C
:1030000081F108430221B1EB601F02D14448006AFC
:1030100001E04348406A4021022292FAA2F2B2FA49
:1030200082F2114301F01F02012191400840002863
:10303000CAD039E0FFE7FFF719F9054608E0FFF7C6
:1030400015F9401B41F28831884201D90320A8E4D8
:103050004020022191FAA1F1B1FA81F10843012146
:10306000B1EB601F02D12E4800680FE04020022122
:1030700091FAA1F1B1FA81F108430221B1EB601F8D
:1030800002D12748006A01E02548406A4021022217
:1030900092FAA2F2B2FA82F2114301F01F02012168
:1030A000914008400028CAD1E069002871D01C482E
:1030B000406800F00C0008286CD0E06902286AD152
:1030C0000021C00590FAA0F0B0FA80F0154A42F84D
:1030D0002010FFF7CBF8054606E0FFF7C7F8401BC6
:1030E000022801D903205CE42020010591FAA1F116
:1030F000B1FA81F108430121B1EB601F02D1084808
:10310000006815E02020010591FAA1F1B1FA81F1E2
:1031100008430221B1EB601F08D10148006A07E0B3
:103120000010024000004242007000405748406AD0
:1031300020210A0592FAA2F2B2FA82F2114301F0BA
:103140001F020121914008400028C6D1206AB0F535
:10315000803F07D14D48406820F40030A168084303
:103160004A494860D4E9080108434849496821F4BC
:1031700074110843454948600120010691FAA1F104
:10318000B1FA81F1424A42F82100FFF76FF8054693
:1031900009E079E076E033E0FFF768F8401B0228A9
:1031A00001D9032015E42020010591FAA1F1B1FA1B
:1031B00081F108430121B1EB601F02D1334800685F
:1031C0000FE02020010591FAA1F1B1FA81F1084345
:1031D0000221B1EB601F02D12C48006A01E02B48AC
:1031E000406A20210A0592FAA2F2B2FA82F2114351
:1031F00001F01F020121914008400028CCD043E09B
:1032000000214FF0807090FAA0F0B0FA80F0204AD0
:1032100042F82010FFF72AF8054606E0FFF726F8E7
:10322000401B022801D9032043E42020010591FA24
:10323000A1F1B1FA81F108430121B1EB601F02D184
:10324000124800680FE02020010591FAA1F1B1FABF
:1032500081F108430221B1EB601F02D10B48006AE3
:1032600001E00A48406A20210A0592FAA2F2B2FA65
:1032700082F2114301F01F02012191400840002811
:10328000CCD101E0012014E4002012E4001002403F
:103290000000424270B504460E4615460CB90120A6
:1032A00070BD94F83D0028B9002084F83C00204609
:1032B00000F01CF804F108012068FEF779FD3146A2
:1032C000A2682068FEF7C8FD2946236BD4E90102F5
:1032D000FEF73CFDA168206850F8210040F0010095
:1032E000A268216841F822000020D9E7704704282D
:1032F00008D14FF0E021096941F004014FF0E022CC
:10330000116107E04FF0E021096921F004014FF05D
:10331000E02211617047704770B504462546681E6B
:10332000B0F1807F01D301200FE0681E4FF0E02153
:1033300048610F214FF0FF3000F068FA00204FF095
:10334000E021886107200861002070BD10B5FFF7FB
:10335000E2FF10BD7047014691F839007047F8B59B
:103360000446002500262068006800F0010520685A
:10337000C06800F4807625B11EB1E06B40F001001A
:10338000E06320680068C0F340052068406900F0F1
:10339000010625B11EB1E06B40F00400E063206837
:1033A0000068C0F3800525B11EB1E06B40F002005B
:1033B000E06320680068C0F3C00525B11EB1E06B72
:1033C00040F00800E06320680068C0F34015206802
:1033D000C06800F020061DB116B1204600F0AEFA1C
:1033E00020680068C0F3C0152068C06800F080063F
:1033F0001DB116B1204600F093FB20680068C0F3B1
:1034000080152068C06800F040061DB116B1204646
:1034100000F07CFAE06B70B100BF2068006800909B
:1034200020684068009000BF00BF012084F8390088
:103430002046FFF78FFFF8BD10B504460CB90120F8
:1034400010BDA06900B100E000BF94F8390028B9B0
:10345000002084F83800204600F026F8022084F886
:1034600039002068C06820F400502168C8602046F8
:1034700000F0C2FA2068006920F4904021680861D9
:103480002068406920F02A00216848612068C068EF
:1034900040F400502168C8600020E063012084F8F7
:1034A00039000020CCE7000010B586B004463C4946
:1034B0002068884236D100BF3A48C06940F40030E5
:1034C0003849C8610846C06900F40030019000BF67
:1034D00000BF00BF0846806940F0040088610846CC
:1034E000806900F00400019000BF00BF042002903A
:1034F000022003900320059002A92B48FEF710FD3F
:103500000820029000200390049002A92648FEF7AC
:1035100007FD002201212620FEF7EAFE2620FEF705
:10352000DAFE3AE021492068884236D100BF1D48C2
:10353000C06940F480201B49C8610846C06900F496
:103540008020019000BF00BF00BF0846806940F0A6
:10355000080088610846806900F00800019000BFFB
:1035600000BF08150290022003900320059002A9D5
:103570000F48FEF7D5FC4FF4006002900020039046
:10358000049002A90A48FEF7CBFC00220121272063
:10359000FEF7AEFE2720FEF79EFE06B010BD00002F
:1035A0000044004000100240000801400048004074
:1035B000000C014030B50346002493F83940012C3B
:1035C00001D0122C37D101B10AB9012030BD00BFA2
:1035D00093F83800012801D10220F7E7012083F891
:1035E000380000BF99629A85DA850020D86393F885
:1035F0003900122803D1322083F8390002E022205A
:1036000083F8390000BF002083F8380000BF186835
:10361000C06840F480701D68E8601868406940F038
:1036200001001D6868611868C06840F020001D68CE
:10363000E8600020CAE70220C8E770472DE9F0479C
:1036400004460D46164699464FF0000894F8398016
:10365000B8F1010F02D0B8F1220F65D105B116B94A
:103660000120BDE8F08700BF94F83800012801D19F
:103670000220F6E7012084F8380000BF0020E06354
:1036800094F83900222803D1322084F8390002E06E
:10369000122084F83900A684E68428E0E08C401EDD
:1036A000E084A068B0F5805F14D14B4600228021F1
:1036B000204600F06DFA08B10320D2E72F46388883
:1036C000C0F3080021684860206908B9AD1C0EE00D
:1036D0006D1C0CE04B4600228021204600F058FA79
:1036E00008B10320BDE715F8010B21684860E08CA4
:1036F0000028D3DC4B4600224021204600F048FA47
:1037000008B10320ADE794F83900322803D1222014
:1037100084F8390002E0012084F8390000BF00205D
:1037200084F8380000BF9CE702209AE7704710B584
:1037300004460CB9012010BD607C20B90020207423
:10374000204600F019F802206074D4E90101084312
:10375000216849686FF308010843216848602068C0
:10376000006820F07F00E1680843216808600120BC
:1037700060740020DFE7000038B504460D4920687A
:10378000884215D100BF0C48C06940F400600A4966
:10379000C8610846C06900F40060009000BF00BF27
:1037A000002211461046FEF7A3FD0020FEF793FD10
:1037B00038BD0000002C004000100240024600BF4F
:1037C000107C012801D1022070470120107400BF35
:1037D000022050741068006820F07F0008431368CE
:1037E00018600120507400BF0020107400BF00BF9B
:1037F000EAE700BFFEE700BFFEE770470248006847
:10380000C0F30220704700000CED00E010B5002866
:1038100007DA0A07140E054A00F00F031B1FD454E1
:1038200003E00A07130E024A135410BD18ED00E01E
:1038300000E400E07047000010B50446214602484D
:1038400000F08CFD10BD00000C02002010B50446F5
:103850002146024800F084FD10BD00000C0200204B
:1038600010B5024801F0CFF910BD00002802002079
:1038700070472DE9F04105460E46174600240EE03C
:1038800000BF28680068C0F380100028F9D0311903
:103890004FF47A7301222846FFF7D0FE641CBC4225
:1038A000EEDBBDE8F08110B5FEF7E6FCFFF74EFD5C
:1038B00010BD00001148006840F001000F49086089
:1038C000084640680E4908400C49486008460068B0
:1038D0000C490840094908600846006820F4802027
:1038E00008600846406820F4FE0048604FF41F005E
:1038F0008860C80304490860704700000010024057
:103900000000FFF8FFFFF6FE08ED00E010B50446EA
:103910002068C06820F040002168C86094F8390031
:10392000322803D1222084F8390002E0012084F8F3
:1039300039002046FFF7FAFE002010BD70B504469E
:10394000002694F83960222E01D0322E52D1A06880
:10395000B0F5805F13D1A56A206940B9206840683E
:10396000C0F308002880A06A801CA06219E02068CB
:103970004068C0B22880A06A401CA06211E02069A3
:1039800038B920684068C1B2A26A501CA0621170A8
:1039900007E02068406800F07F01A26A501CA06226
:1039A0001170E08D401E80B2E08508BB2068C068C1
:1039B00020F020002168C86094F83900322803D133
:1039C000122084F839000EE02068C06820F480706E
:1039D0002168C8602068406920F0010021684861C2
:1039E000012084F839002046FFF727FE002070BD33
:1039F0000020FCE70220FAE72DE9F041044600250B
:103A00002068006920F44050E1680843216808619B
:103A10002169A0680843616940EA01052068C0681F
:103A200041F20C61884328432168C86020684069DE
:103A300020F44070A1690843216848613749206833
:103A4000884234D1FEF7F2FE00EBC00101EB00101A
:103A500061688900B0FBF1F06421B0FBF1F6FEF77C
:103A6000E5FE00EBC00101EB001061688900B0FBCE
:103A7000F1F7FEF7DBFE00EBC00101EB001061681F
:103A80008900B0FBF1F06421B0FBF1F000EBC00164
:103A900001EB0010A7EB8000322101EB0010642144
:103AA000B0FBF1F066F31F102168886033E0FEF789
:103AB000A7FE00EBC00101EB001061688900B0FBBC
:103AC000F1F06421B0FBF1F6FEF79AFE00EBC001C5
:103AD00001EB001061688900B0FBF1F7FEF790FE82
:103AE00000EBC00101EB001061688900B0FBF1F050
:103AF0006421B0FBF1F000EBC00101EB0010A7EB7B
:103B00008000322101EB00106421B0FBF1F066F37C
:103B10001F1021688860BDE8F08100000038014076
:103B200010B50146002391F83930122B01D0322B09
:103B30002CD18868B0F5805F0FD10A6A1088C0F375
:103B400008000C686060086918B9086A801C08627F
:103B500009E0086A401C086205E00C6A601C086203
:103B600020780C686060C88C401E80B2C88458B948
:103B70000868C06820F080000C68E0600868C068D1
:103B800040F040000C68E060002010BD0220FCE71F
:103B90002DE9F04104460E4617461D464FF0000839
:103BA000FEF764FB80469FBB2BE0681C48B32DB139
:103BB000FEF75CFBA0EB0800A84222D92068C06891
:103BC00020F080002168C8602068C06820F02000D4
:103BD0002168C8602068C06820F480702168C860CF
:103BE0002068406920F0010021684861012084F8C4
:103BF000390000BF002084F8380000BF0320BDE872
:103C0000F081206800683040B04202D1012001E01C
:103C100003E000200028C8D035E02AE0681C40B34B
:103C20002DB1FEF723FBA0EB0800A84221D92068A4
:103C3000C06820F080002168C8602068C06820F05B
:103C400020002168C8602068C06820F48070216866
:103C5000C8602068406920F00100216848610120A7
:103C600084F8390000BF002084F8380000BF03202A
:103C7000C5E7206800683040B04201D1012000E073
:103C800000200028CAD10020B9E700001CB5174861
:103C9000FFF765FB00BF1548FFF75DFB0128FAD170
:103CA00000BF012212491148FFF784FC0028F8D117
:103CB0000F49643991F86400FFF7BEFDA0B1694671
:103CC00001A8FEF707F970B1012280210948FEF72B
:103CD000C7FA0648DDE90021FFF7CBFD002280216D
:103CE0000448FEF7BDFA00BF1CBD000078010020AB
:103CF00074000020001001401CB51748FFF72FFB8F
:103D000000BF1548FFF727FB0128FAD100BF0122A9
:103D100012491148FFF74EFC0028F8D10F496439C9
:103D200091F86400FFF792FDA0B1694601A8FEF783
:103D3000DDF870B1012240210948FEF791FA0648EA
:103D4000DDE90021FFF795FD002240210448FEF740
:103D500087FA00BF1CBD0000B8010020F800002059
:103D60000010014000BFFEE7D1E90023C0E90023B5
:103D7000D1E90223C0E90223D1E90423C0E90423E5
:103D80007047F0B505ACF0CCC0E90023C0E90245AE
:103D9000C0E90467F0BD2DE9F04704468946924624
:103DA000DAE900532A46D9E90071384606F0B4FB37
:103DB000C4E90001DAE902532A46D9E9027138461A
:103DC00006F0AAFBC4E90201DAE904532A46D9E95C
:103DD0000471384606F0A0FBC4E90401BDE8F08791
:103DE0002DE9F04788B082460C469146D9E9045344
:103DF0002A46D4E90471384606F0A2FECDE9060150
:103E0000D9E902532A46D4E90271384606F098FEF1
:103E1000CDE90201D9E900532A46D4E900713846B8
:103E200006F08EFECDE90001DDE9022306F074FB09
:103E3000CDE90401DDE9062306F06EFBCAE90001C5
:103E4000D9E904532A46D4E90A71384606F078FEC7
:103E5000CDE90601D9E902532A46D4E9087138466A
:103E600006F06EFECDE90201D9E900733A46D4E9C5
:103E70000651284606F064FECDE90001DDE9022383
:103E800006F04AFBCDE90401DDE9062306F044FB18
:103E9000CAE90201D9E904733A46D4E91051284627
:103EA00006F04EFECDE90601D9E902733A46D4E99F
:103EB0000E51284606F044FECDE90201D9E900532F
:103EC0002A46D4E90C71384606F03AFECDE90001E5
:103ED000DDE9022306F020FBCDE90401DDE906233C
:103EE00006F01AFBCAE9040108B0BDE8F08700003B
:103EF0002DE9F04F93B082468B46DBE90001784A0A
:103F0000784BCDE9020106F01BFE0022764BCDE98D
:103F1000040106F0BDFBCDE91001DBE90201704AA6
:103F2000704BCDE9020106F00BFE00226E4BCDE98D
:103F3000040106F0ADFBCDE90E01DBE90401684A9E
:103F4000684BCDE9020106F0FBFD0022664BCDE98E
:103F5000040106F09DFBCDE90C01DDE9100106F03E
:103F6000F1F904460D46DDE9100105F0ABF8804695
:103F70008946DDE90E0106F0E5F9CDE90A01DDE942
:103F80000E0105F09FF806460F46DDE90C0106F02C
:103F9000D9F9CDE90801DDE90C0105F093F8CDE987
:103FA000060120462946DDE90A2306F0C9FDCDE9D0
:103FB0000001DDE9082306F0C3FDCDE90401404618
:103FC0004946DDE9062306F0BBFDCDE90201DDE946
:103FD000042306F0DBFFCAE9000185F00040324609
:103FE0003B46CDE904402046059906F0A9FDCAE903
:103FF000020120462946DDE90A2306F0A1FDCDE9AC
:104000000001DDE9062306F09BFDCDE904014046F1
:104010004946DDE9082306F093FDCDE90201DDE91B
:10402000042306F079FACAE9040140464946DDE96D
:104030000A2306F085FDCDE90001DDE9082306F03D
:104040007FFDCDE9040120462946DDE9062306F07F
:1040500077FDCDE90201DDE9042306F05DFACAE946
:10406000060132463B464046494606F069FDCAE92C
:10407000080140464946DDE90A2306F061FDCDE925
:104080000001DDE9062306F05BFDCDE904012046D1
:104090002946DDE9082306F053FDCDE90201DDE9FB
:1040A000042306F073FFCAE90A0187F00040CDE956
:1040B00004603046DDE90823059906F041FDCAE9B0
:1040C0000C01DDE90A01CAE90E0130463946DDE995
:1040D000062306F035FDCAE9100113B0BDE8F08FE4
:1040E0004AD8124DFB210940008066402DE9F04777
:1040F00004460D4616461F46DDE9088942464B46F2
:104100002046294606F01AFE03D240464946BDE83D
:10411000F08732463B462046294606F0D5FC02D2BF
:1041200030463946F3E720462946F0E72DE9F04FBF
:104130008BB004468946D9E90001CDE90801D4E9EC
:104140000001CDE90601DDE9082306F01FFF054661
:104150000E46D9E90201CDE90801D4E90201CDE911
:104160000601DDE9082306F011FF07468846D9E974
:104170000401CDE90801D4E90401CDE90601DDE936
:10418000082306F003FF82468B4652465B465046A4
:10419000594606F0D5FC3A464346CDE90601384675
:1041A000414606F0CDFC2A463346CDE902012846B9
:1041B000314606F0C5FCCDE90001DDE9022306F039
:1041C000ABF9CDE90401DDE9062306F0A5F9CDE957
:1041D000080106F007F90BB0BDE8F08F002101627D
:1041E000416206498162C1620163002141638163CA
:1041F000C16301644164816470470000CDCCCC3D53
:10420000034600207047000070B506460C46154670
:104210002A462146014800F051FD70BD28020020C9
:104220002DE9F74F9246BAF1000F1EDD504606F019
:1042300020FC804642460B4600200F4906F028FA33
:10424000064600220D4B06F067F9044606F0E4FB33
:104250001FFA80FB5A46DDE9000100F09AF8524649
:10426000DDE9000100F00CF804E00022DDE90001C6
:1042700000F006F8BDE8FE8F0088C3400000E03F74
:1042800010B58B1D5B0403F1C0431A8010BD000004
:10429000014B1980704700000000186070B5064699
:1042A0000C460025207808B1012000E000200543DD
:1042B000607808B1022000E000200543A07808B132
:1042C000042000E000200543E07808B1082000E069
:1042D00000200543207908B1102000E000200543AC
:1042E000607908B1202000E00020054329463046CF
:1042F000FFF7CEFF70BD70B505460C460CB13F20F0
:1043000000E0002001462846FFF7C2FF70BD000014
:1043100030B501460F480088C04382B20E4800887D
:10432000C04383B2002011E0012484401C400CB142
:10433000012500E000258C1D2554012484401440F3
:104340000CB1012400E000240C54401C0628EBDBD7
:1043500030BD000000000E6000000C600246704797
:1043600070B505460C462146014800F05DFA70BD67
:10437000280200200146002008E0420402F1C04269
:10438000138801F10C0222F81030401C0628F4DBDF
:10439000704710B54B0403F1C0431A8010BD0000F4
:1043A00070B50546012291030F48FDF759FF00241F
:1043B0000BE04FF6FF7221462846FFF7EAFF002286
:1043C00021462846FFF75CFF641C062CF1DB002128
:1043D0002846FFF75DFF00224FF480410248FDF7B9
:1043E0003FFF284670BD0000000C014010B5044698
:1043F000002308E0C3EBC30204F1080101EBC20093
:1044000000F031FE5B1C062BF4DB10BD70B50546D9
:10441000002408E0C4EBC40205F1080101EBC2006E
:1044200000F029FE641C062CF4DB70BD2DE9F04180
:1044300005460F46164600240BE0C4EBC40205F106
:10444000080101EBC200394600F038FE46F82400AE
:10445000641C062CF1DBBDE8F0812DE9F041054636
:104460000F46164600240BE0C4EBC40205F1080118
:1044700001EBC200394601F039F846F82400641C0B
:10448000062CF1DBBDE8F0812DE9F04F87B0064640
:104490000F4690461C46DDF84090DFF884A0DFF818
:1044A00084B01EE05946504606F086FE019006F0A4
:1044B00057FE00221C4BCDE9020106F041FBCDE97D
:1044C000040105F0F7FF054643463A4629463046C3
:1044D000CDE9004900F02EF808B1AB4600E0AA464D
:1044E00000BF5146584607F08FF9054606F038FEE2
:1044F0000E4A0F4BCDE9040106F020FCD2D343460F
:104500003A4659463046CDE9004900F013F858467E
:1045100006F026FEC6E9000107B0BDE8F08F0000F6
:104520000AD7233C0000A0410000E03F7B14AE47C7
:10453000E17A843F2DE9FC470546884616461F462A
:10454000DDE90A9A002417E05AF8240059F82410EB
:10455000CDE9001057F8243056F82420C4EBC40CE1
:1045600005F1080101EBCC00414600F03BFE10B91B
:104570000020BDE8FC87641C062CE5DB0120F8E781
:104580002DE9F04198B004460CA80EA910AA12AB70
:10459000CDE90021029014AA16A904F6E81001F052
:1045A0002FFCD4F8D0552A46D4F8D435DDE91201D1
:1045B00005F0B2FF0746884601200A90DDE90C01AC
:1045C000CDE90801DDE90E01CDE90601DDE91001C3
:1045D000CDE90278CDE90401DDE91401CDE900015E
:1045E0002046DDE9162303F068FC18B0BDE8F08131
:1045F0002DE9F04796B082460AF53A6002F04AF992
:1046000041F2084151F80A0006F0AAFD80468946A9
:1046100041F2044151F80A0006F0A2FDCDE914016F
:104620004FF4A05151F80A0006F09AFDCDE91201AD
:1046300041F2FC3151F80A0006F092FD0446DAF826
:10464000D0653246DAF8D43505F066FFCDE91001C1
:1046500041F2F83151F80A0006F082FDCDE90E0171
:1046600041F2F43151F80A0006F07AFDCDE90C016F
:104670000120CDE908890A90DDE91401CDE90601A0
:10468000DDE91201CDE90401DDE91001CDE9020106
:10469000DDE90E01CDE900015046DDE90C2303F010
:1046A0000CFC16B0BDE8F0872DE9FF5F074600243B
:1046B0005FE041F2D471C85906F052FDCDE9020124
:1046C00041F2D870384400EBC400D0E900A3524650
:1046D000029806F035FA8046894607F5BC6000EB83
:1046E0004410D0E904A341F60800384400EBC401AB
:1046F00003C95246CDE9020106F048FC05460E46C4
:1047000026F00041AA4642464B46504606F016FBAC
:1047100022D2002213462846314606F00FFB02D271
:104720004046494602E0404689F00041CDE9020199
:1047300007F5BC6000EB441041690069CDE9000158
:10474000DDE9022305F0E8FE824652460B4621468B
:10475000384603F03DFC0BE041F60800384400EB1E
:10476000C400D0E900A352462146384603F030FC8D
:10477000641C062C9DDBBDE8FF9F2DE9F047A2B02D
:10478000824616A818A91AAA1CABCDE900210290EE
:104790001EAA20A90AF5D46002F06BFFDDE916819C
:1047A00081F00049DDE9180181F00041CDE91401F3
:1047B000DDE91A0181F00041CDE91201DDE91C417A
:1047C00081F00041DAF8D06532462046DAF8D43577
:1047D00006F0DCFBCDE91001DDE91E0181F00041AE
:1047E000CDE90E01DDE9200181F00041CDE90C01A8
:1047F0000120CDE908890A90DDE91401CDE906011F
:10480000DDE91201CDE90401DDE91001CDE9020184
:10481000DDE90E01CDE900015046DDE90C2303F08E
:104820004CFB22B0BDE8F08770B504460D46294622
:1048300041F2F860204402F075FB10B341F2F861D8
:104840006018817841F2CC700059814207D041F262
:10485000F861601881780E46204600F007F941F2B1
:10486000F8616018817841F2CC700151204600F067
:104870000BF8214641F2F860204402F011F90120C2
:1048800070BD0020FCE700002DE9F047B0B0824683
:1048900041F2CC7050F80A00002808D041F2CC70E8
:1048A00050F80A00012803D1504600F09FF9D8E0E3
:1048B00041F2CC7050F80A00022830D12DAB2EAA5C
:1048C0002FA941F2F860504402F0F8FA2F9801281D
:1048D00024DB2F98062821DC2E9806F041FC0446A4
:1048E0000D46002160480A460B46CDE900102046DF
:1048F0002946FFF7FBFB2F9A521E41F6080353444B
:1049000003EBC20203C22D9806F02AFC2F9A521E16
:1049100041F2D873534403EBC20203C2A1E041F257
:10492000CC7050F80A00032814D12FA82EA92DAA64
:104930002CABCDE9002102902BAA2AA941F2F86004
:10494000504402F039FA2AA941F21040504402F0D2
:10495000E9FB86E041F2CC7050F80A00042840D10F
:104960002AA82BA92CAA2DABCDE9002102902EAAB2
:104970002FA941F2F860504402F044F92A9806F059
:10498000EFFB04460D462B9806F0EAFB06460F4661
:104990002C9806F0E5FB804689462D9806F0E0FB52
:1049A000CDE928012E9806F0DBFBCDE926012F98F2
:1049B00006F0D6FBCDE90489CDE90667CDE90845C7
:1049C000CDE92401DDE92801CDE90201DDE9260177
:1049D000CDE900010AF5D460DDE9242302F034FEBC
:1049E0003FE041F2CC7050F80A00062811D117A917
:1049F00041F2F860504402F057FA58221AA968466A
:104A0000FBF7D3FC0AF5D46017A90EC902F010FF1A
:104A100027E041F2CC7050F80A00072821D12BA8DA
:104A20002CA92DAB2EAACDE900102FA941F2F860D8
:104A3000504402F05FF94FF49F502F9940F80A104C
:104A4000001D2E9940F80A10001D2D9940F80A10FB
:104A5000001D2C9940F80A10001D2B9940F80A10EF
:104A600000BF30B0BDE8F0870000D03F2DE9F04333
:104A700087B004468946B9F1030F22D104F552707C
:104A800003C8CDE9000104F55270C1688068CDE922
:104A9000020104F55271D4F8D055D4F8D4350F6919
:104AA0002A463846D4F85C1306F070FACDE90401C2
:104AB00004F55872694641F21040204402F0E6FACB
:104AC00013E0B9F1020F10D100200CE004F5BC6135
:104AD00001EB4012D2E9041241F60803234403EB30
:104AE000C00306C3401C0628F0DB07B0BDE8F08316
:104AF0002DE9F0479AB082460AF5AB6003C8CDE9CC
:104B000014010AF5AB60C1688068CDE916010AF5A9
:104B1000AB60DAF8D065DAF8D4353246D0E9044132
:104B2000204606F033FACDE918010AF5AE6214A961
:104B300041F21040504402F043FB41F21041514415
:104B4000D1F8F80106F00CFB04460D4641F2104185
:104B50005144D1F8F40106F003FB8046894641F246
:104B600010415144D1F8F00106F0FAFACDE91201F2
:104B700041F210415144D1F8EC0106F0F1FACDE9CF
:104B80000A01DAF8D0653246DAF8D43505F0C4FC0B
:104B9000CDE9100141F210415144D1F8E80106F08D
:104BA000DFFACDE90E0141F210415144D1F8E401A0
:104BB00006F0D6FACDE90C010120CDE90689CDE950
:104BC00008450A90DDE91201CDE90401DDE9100193
:104BD000CDE90201DDE90E01CDE900015046DDE934
:104BE0000C2303F06AF91AB0BDE8F087002241F205
:104BF000D0710A54491C0A5441F2106281180122F2
:104C00000A7200BF704710B50446204600F036F81F
:104C100041F2D070005D18B9204600F05FF826E040
:104C200041F2CC70005908281AD2DFE800F00419CC
:104C300005090D11191513E02046FFF735FD0FE0AA
:104C40002046FFF755FF0BE02046FFF796FD07E0F3
:104C50002046FFF795FC03E02046FFF7C9FC00BFA4
:104C600000BF214641F21060204401F003F841F2F8
:104C70001060204401F09CF810BD000010B50446FF
:104C800041F638000059401C41F6380108510846E9
:104C900000591421B0FBF1F000F0010028B100220E
:104CA00010210548FDF7DCFA04E00122102102483A
:104CB000FDF7D6FA10BD0000001C014010B50346F8
:104CC00041F2F86018446E30086041F2F864181937
:104CD0006F24245C641D1460012010BD2DE9F04791
:104CE0008EB0824641F2D17010F80A0088B941F2C4
:104CF0001060504400F008FF41F2D17101F80A0041
:104D0000084610F80A0000285BD0504603F0ACF9C2
:104D100057E041F2D47151F80A0006F021FA044636
:104D2000294A2A4B05F00CFFCDE90C01504603F04F
:104D30002DFB0446DAF8D0653246DAF8D43506F0B1
:104D400025F980460022134605F0F8FF18D8012106
:104D500041F2D07000F80A10182106A8FBF757FBA3
:104D600018216846FBF753FB0AF53A6001F046F953
:104D70006A4606A941F21040504402F087F91FE04C
:104D8000504603F003FB0646DDE90C2305F0C4FBA7
:104D9000044600200A90089009900690079004901D
:104DA0000590009002460346CDE90241019050462D
:104DB00003F083F8514641F21060504400F05AFF6E
:104DC00000BF0EB0BDE8F0877B14AE47E17A843FA8
:104DD00070B586B00446204603F010FB044604F587
:104DE000D46002F005FEA0F5D46404F6E81001F0EA
:104DF00087F8A0F6E81404F53A6001F0CFFDA0F5BD
:104E00003A6441F21040204402F0EEFAA0F5A054BA
:104E1000103C41F21060204400F0D6FFA0F5B054E1
:104E2000103C41F2F860204402F0F5F8A0F5B054CF
:104E3000F83C002141F2CC7001516C4941F2D47030
:104E400001516B496B48C4E900106B486B49C4E9D8
:104E5000020167496748C4E9041067496748C4E923
:104E60000610002121626162A162E1626449654825
:104E7000C4E90C1000216448C4E90E106348644979
:104E8000C4E91001204603F0EDF941F2D47108594C
:104E900006F066F905460B465E495F48CDE9041009
:104EA0004FF033315D48CDE9021000215C482A46BD
:104EB000CDE9001004F5E06002F09CFE41F2D471EF
:104EC000085906F04DF905460B4656495648CDE9B6
:104ED00004104FF033305149CDE902010021504810
:104EE0002A46CDE9001004F5EA6002F083FE41F2A3
:104EF000D471085906F034F905460B464549464831
:104F0000CDE904104FF033314448CDE902100021BF
:104F100043482A46CDE9001004F5F46002F06AFE29
:104F200041F2D471085906F01BF905460B460021E1
:104F30003E48CDE902103E482A46CDE9001004F56E
:104F4000FE6002F015FF41F2D471085906F008F92D
:104F500005460B4600213748CDE9021034482A4661
:104F6000CDE9001004F6280002F002FF41F2D471EE
:104F7000085906F0F5F805460B4600212D48CDE905
:104F800002102B482A46CDE9001004F5066002F015
:104F9000EFFE41F2D471085906F0E2F805460B46DF
:104FA00000202249CDE9020123492A46CDE900012A
:104FB00004F6980002F0E6FA41F2D471085906F0BE
:104FC000CFF805460B4600211848CDE902101A48D3
:104FD0002A46CDE9001004F6F80002F0D3FA204684
:104FE000FFF704FE204606B070BD00000AD7233C40
:104FF00079E9263108ACDC3F9A9999999999A93FAA
:1050000048E17A14AE47E13F0000D03F7B14AE4741
:10501000E17A743FDBF97E6ABC74A33F3333D33F3C
:105020000000E03F2B8716D9CEF7B33F00001440B5
:1050300000003440000024400000F03F2DE9F04122
:10504000804614461D46DDE9066732463B4620464B
:10505000294605F073FE03D220462946BDE8F081BB
:1050600030463946FAE700228261C261026142613C
:105070008260C26070472DE9F0410446D4E90C73A8
:105080003A46D4E90251284605F05AFDC4E9020126
:10509000D4E90C733A46D4E90451284605F050FD92
:1050A000C4E90401D4E90C733A46D4E90651284610
:1050B00005F046FDC4E90601BDE8F0812DE9F04F99
:1050C0008BB004468946484606F04AF882468B462D
:1050D000484606F045F805460E46D4E906733A46BA
:1050E00000201B4905F02CFD2A463346CDE900017E
:1050F00005F026FD52465B46CDE9020105F020FD94
:10510000CDE90601484606F02BF805460E46D4E9DF
:1051100004733A4600204FF0804105F011FD8246AD
:105120002A46334605F00CFDCDE90201D4E90253CD
:105130002A4605F0F1F9CDE90401DDE9062305F081
:10514000EBF9CDE9080105F0B5F90BB0BDE8F08F3A
:10515000000008402DE9F04F8BB082468B46584640
:1051600005F0FEFF04460D46DAE9066332460020EC
:105170001B4905F0E5FC804622462B4605F0E0FC85
:10518000CDE90201DAE90443224600204FF08041D4
:1051900005F0D6FCCDE90001DDE9022305F0BCF9FC
:1051A00021F00041CDE90601DAE90443224600205E
:1051B0004FF0804105F0C4FC21F00041CDE904012D
:1051C000DDE90601CDE900015046DDE90423FFF7E2
:1051D00035FFCDE9080105F06DF90BB0BDE8F08FA2
:1051E000000018402DE9FF5F0446894615461E461B
:1051F000DDF838A000BF25F00040039005F0B0FFB7
:105200000746574A574B05F05FFC01D2002000E0EB
:105210002846834605F0A4FFC4E9000100BF26F03C
:105220000040834605F09CFF07464D4A4D4B05F074
:105230004BFC01D2002000E03046039005F090FFC7
:10524000C4E902014946484606F04EF9314603904A
:105250004FF0804006F048F900900F9905F0ACFF40
:105260008346494606F040F980462946504606F0F6
:10527000CBFA83463C4906F037F94146019006F0E7
:10528000C3FA0290039906F005F8074605F068FF97
:10529000C4E904014946484606F026F983464946D2
:1052A00006F022F9804630460F9905F085FF494601
:1052B000019006F019F983465146284606F0A4FAF3
:1052C0004FF08041019006F00FF95946029005F029
:1052D00073FF4146039005F0DDFF074605F040FFF0
:1052E000C4E90601D4E9047121F000411C4A1D4BB8
:1052F000384605F0E9FB02D2002121616161D4E961
:10530000067121F00041164A164B384605F0DCFBC9
:1053100002D20021A161E1614946204600F030F847
:10532000074605F01DFFCDE90201D4E908733A46AE
:1053300005F0CAFB12D849462046FFF70BFF074687
:1053400005F00EFFCDE90201D4E90A733A4605F0F3
:10535000BBFB03D8012004B0BDE8F09F0020FAE7B2
:10536000F168E388B5F8E43E000040400022826125
:10537000C261026142618260C26002604260704745
:105380002DE9F04F8FB004468946484605F0E8FE07
:1053900082468B46484605F0E3FE05460E46D4E9B4
:1053A00006733A4600204E4905F0CAFB2A463346AA
:1053B000CDE9000105F0C4FB52465B46CDE9020190
:1053C00005F0BEFBCDE90601484605F0C9FE824660
:1053D0008B46D4E904733A4600204FF0804105F033
:1053E000AFFB054652465B4605F0AAFBCDE902013C
:1053F000D4E902532A4605F08FF8CDE90401DDE92E
:10540000062305F089F821F00041CDE90A01D4E92D
:10541000020121F00041CDE90801DDE90A01CDE9F1
:1054200000012046DDE90823FFF708FECDE90C0165
:1054300005F040F80E90D4E9065121F00041294AC8
:10544000294B284605F07AFC46D2D4E906532A4671
:105450000020234905F074FBCDE90A01D4E9047169
:1054600081F00041024638460B9B05F011F9824657
:1054700005F020F80D9000210D9806F001F92AD2D0
:1054800049460D9805F0FCFF25D20E9805F068FE00
:10549000CDE908010D9805F063FE0746D4E90453F1
:1054A0002A4605F04DFB8246D4E902532A4605F010
:1054B00033F821F00041CDE90601DDE90801CDE92D
:1054C00000012046DDE90623FFF7B8FDCDE90A011A
:1054D00004F0F0FF0E9000BF0E980FB0BDE8F08F03
:1054E00000000840FCA9F1D24D62503F2DE9F04F79
:1054F0008DB004468946484605F032FECDE90401E8
:10550000484605F02DFE82468B46484605F028FEAB
:105510000546D4E906733A4605F012FB52465B464F
:10552000CDE9000105F00CFBCDE90201DDE9042322
:1055300005F006FBCDE90801484605F011FE82465C
:105540008B46484605F00CFE0746D4E904532A462C
:1055500005F0F6FA52465B46CDE9000105F0F0FA97
:10556000CDE90401484605F0FBFD0746D4E90253A6
:105570002A4605F0E5FA8246D4E900532A4604F0AB
:10558000CBFFCDE90201DDE9042304F0C5FFCDE93D
:105590000601DDE9082304F0BFFFCDE90A0104F0AC
:1055A00089FF0DB0BDE8F08F00B5034604490548FA
:1055B000C3E90C101846FFF7D9FE184600BD0000DD
:1055C0009A9999999999E93F2DE9F04F93B08A46B4
:1055D0009346DDE91C671A4A1A4B3046394605F0F6
:1055E000AFFA80460022184B05F052F804460D46EB
:1055F000482216496846FAF7D8FE2046294603F0A5
:1056000061FDCDE900012046294604F09BFE81F0B2
:105610000041CDE902012046294604F093FECDE980
:1056200006012046294603F04DFDCDE908015A4602
:1056300069465046FEF7D4FB13B0BDE8F08F00007A
:1056400050455254FB2109400080664000BA0008D2
:1056500070B504460D4604F5B47104F19000FEF7F0
:1056600065FDC5E9000104F5C07104F1A800FEF76D
:105670005DFDC5E9020104F5CC7104F1C000FEF73F
:1056800055FDC5E9040104F5907104F1D800FEF759
:105690004DFDC5E9060104F59C7104F1F000FEF72B
:1056A00045FDC5E9080104F5A87104F58470FEF70D
:1056B0003DFDC5E90A0170BD2DE9F04105460E46E4
:1056C000174600241EE004EB440306EBC30204EB80
:1056D000440305EBC30104EB440305EBC300FEF7F1
:1056E0005AFB04EB440307EBC30204EB440C05F53F
:1056F000907303EBCC0104EB440C03EBCC00FEF7FE
:105700004AFB641C062CDEDBBDE8F0812DE9FF5F5F
:10571000D0B060AC94E8300CDDF87C91DDF8788195
:10572000659F649E87F00040CDE90660CDE9026088
:105730005399529842464B46CDE900012CA8FEF7FA
:1057400020FB002143482CAACDE9001038A950982D
:10575000FFF73AFF002040492CAACDE9000144A9F7
:105760005098FFF731FF87F00040CDE9066089F0DF
:105770000040CDE904800798CDE902605399529822
:105780004246CDE9000132A8059BFEF7FAFA002156
:10579000304832AACDE900103EA95098FFF714FF17
:1057A00000212D4832AACDE900104AA95098FFF7F0
:1057B0000BFF85F00040CDE906408BF00040CDE9BD
:1057C00004A067996698CDE9020107985246CDE991
:1057D000004008A8059BFEF7D4FA00211D4808AA3E
:1057E000CDE9001014A95098FFF7EEFE00211A48E9
:1057F00008AACDE9001020A95098FFF7E5FE85F032
:105800000040CDE9064067996698CDE90201079806
:1058100052465B46CDE900400EA8FEF7B2FA0021E1
:105820000C480EAACDE900101AA95098FFF7CCFE3B
:10583000002109480EAACDE9001026A95098FFF7CB
:10584000C3FE08AA2CA9509800F008F854B0BDE88F
:10585000F09F000000005E4000005EC02DE9F041B6
:1058600005460E461746002416E004EB440206EBFC
:10587000C20104EB440205EBC200FEF775FA04EB2B
:10588000440207EBC20104EB440305F5907202EBFE
:10589000C300FEF769FA641C062CE6DBBDE8F08164
:1058A0002DE9FC5F83462348007800283ED18246DC
:1058B00036E0AAF5617005F0DCF81F4A1F4BCDE910
:1058C000000105F03DF906461D4A1E4B05F038F96A
:1058D000804600221C4B04F0DBFE044604F032FD3F
:1058E0001A4A02EBCA0203C2504605F0C2F8124A35
:1058F000124BCDE9000105F023F98046104A114B07
:1059000005F01EF9064600220F4B04F0C1FE0446C6
:1059100003F0D8FB0E4A02EBCA0203C20AF1010AE5
:10592000BAF5E16FC5DD0120024908705846BDE8AF
:10593000FC9F0000300100209A9999999999B93FEC
:1059400050455254FB21094000806640681A0020EF
:10595000B052002070B5054621261948FEF70AFD11
:105960001748FEF7D5FC002423E01548801D005D94
:1059700020B1002105F10C0040F8241032462146E8
:105980000F48FEF74DFC002104EB440205F1A00096
:1059900000EB820004EB4402816005F1A00000EB03
:1059A000820004EB4402416005F1A00040F822109F
:1059B000641C062CD9DB00210148FEF79CFC70BD5D
:1059C0000C0200202DE9F04104464E48FEF7A0FCF1
:1059D0004C48FEF7CFFC00257DE04A48801D405D25
:1059E00028B1002104F10C0040F825101EE004F15C
:1059F0005400405D68B104F10C0050F82510414896
:105A00000C3030F81500091A04F10C0040F825108C
:105A10000CE004F10C0050F825103A480C3030F836
:105A20001500014404F10C0040F8251004F1240095
:105A300050F825202946204600F096F8064604F145
:105A40000C0050F82500B04209DC04F10C0050F8BD
:105A50002500371A012104F15400415508E004F1F2
:105A60000C0050F82500871B002104F1540041551B
:105A700004F15A0020F815706068B84205D2A08879
:105A800081B204F15A0020F815102068B84204D9F8
:105A9000002104F15A0020F8151004F15400405D73
:105AA00060B104F10C0050F825104E3030F81500AC
:105AB000014404F10C0040F825100BE004F10C0047
:105AC00050F825104E3030F81500091A04F10C007A
:105AD00040F825106D1C062DFFF67FAF002508E06D
